:020000040800F2
:10000000C05C0020D1010008693F0008F13B0008F6
:10001000DD010008DF010008E10100080000000028
:10002000000000000000000000000000654400081F
:10003000510C00080000000001410008CD440008F8
:10004000EB010008EB010008EB010008EB010008E0
:10005000EB010008EB010008EB010008EB010008D0
:10006000EB010008EB010008EB010008590B000848
:10007000EB010008EB010008690B0008EB01000828
:10008000EB010008790B0008EB010008EB01000808
:10009000EB010008EB010008EB010008EB01000890
:1000A000EB010008EB010008EB010008EB01000880
:1000B000EB010008EB010008EB010008EB01000870
:1000C000EB010008EB010008EB010008EB01000860
:1000D000EB010008EB010008EB010008EB01000850
:1000E000EB010008EB010008EB010008EB01000840
:1000F000EB010008EB010008EB0100080000000024
:10010000EB010008EB010008EB010008EB0100081F
:10011000EB010008EB010008EB010008EB0100080F
:10012000EB010008EB010008EB010008EB010008FF
:10013000EB0100084909000855090008EB01000817
:10014000EB010008EB010008EB010008A53F0008E7
:10015000EB010008EB010008EB010008EB010008CF
:10016000EB010008EB010008EB010008EB010008BF
:10017000EB010008EB010008EB01000800000000A3
:10018000EB010008EB010008EB010008EB0100089F
:10019000EB010008EB010008000000000000000077
:1001A0000000000000000000EB010008EB01000867
:1001B000EB010008EB010008EB010008DFF80CD0B0
:1001C00000F03CF800480047A1620008C05C002035
:1001D0000648804706480047FEE7FEE7FEE7FEE7E1
:1001E000FEE7FEE7FEE7FEE7FEE7FEE7A5450008BF
:1001F000BD01000840EA01039B0703D009E008C9DC
:10020000121F08C0042AFAD203E011F8013B00F8DB
:10021000013B521EF9D27047D2B201E000F8012B27
:10022000491EFBD270470022F6E710B513460A4676
:1002300004461946FFF7F0FF204610BD064C074D57
:1002400006E0E06840F0010394E8070098471034A6
:10025000AC42F6D3FFF7B6FFE4640008046500087B
:10026000B0B50446206803F01BFD0546206803F086
:100270001BFD014600209DBB002908BFB0BD2068C2
:10028000816801F00D0101292BD103F0C9FC206820
:100290000321016001F008FF05462068806810F026
:1002A000010F04BF0020B0BD07E000BF20688068D8
:1002B00010F0010F04BF0020B0BD01F0F5FE401B9F
:1002C0000228F3D92068806810F0010FEED0A06DED
:1002D00040F01000A065E06D40F00100E0650120F5
:1002E000B0BDA06D40F01000A065E06D40F00100D1
:1002F000E0650120B0BD0000B0B582B00446002525
:100300000195206803F0D0FC00285BD1206881684B
:100310003F22C8F20002114209D0A06D40F0100047
:10032000A065E06D40F00100E06501254AE003F0C2
:1003300089FC03F09BFC10F4000F19D040F224005C
:10034000C2F200000068800942F66351C0F23E51DB
:10035000A0FB0101880900EB40000C2101EB8000AB
:1003600002E000BF01980138019001980028F9D1FE
:1003700001F09AFE05462068016811F0010F16D1C0
:1003800003F092FC10B9206803F05CFC01F08CFED5
:10039000401B032804D32068006810F0010F08D028
:1003A0002068016811F0010FEAD000250AE000255D
:1003B00008E0A06D40F01000A065E06D40F0010085
:1003C000E0650125284602B0B0BD000041F244427C
:1003D000C2F200021288D0F8BC3203F81D2F120AB4
:1003E0005A70CA88194604F0F9BC0000D0F8BC3233
:1003F000002203F81D2F5A70CA88194604F0EEBC7B
:10040000D0F8BC32E02203F81D2FDB225A70CA88D4
:10041000194604F0E3BC0000D0F8BC32232203F8F4
:100420001D2F00225A70CA88194604F0D7BC00005C
:10043000B0B50C46E288002A08BFB0BDD0F8BC5267
:1004400041F24441C2F2000104F0AEFC4FF0010061
:100450002877A07985F85D00607985F85E00B0BDE9
:1004600040F68430C2F20000C02104F003B800005E
:100470000020704700207047002070470020704720
:100480000020704700207047002070470020704710
:1004900080B5002346F2604CC0F6000C19463F2997
:1004A00011D83CF91120B0EB020E48BFCEF1000E7E
:1004B0000CEB4102B2F90220821A48BF524201F10C
:1004C00001039645EADC012000F0CEF940B280BD80
:1004D000B0B5044640F21815C2F20005287820B1E4
:1004E0002878204328700020B0BD40F2B000C2F24E
:1004F00000000021C5F2040100224FF0040CC0E905
:100500000012C0E90222C0E9042C027601214176E2
:10051000C161416280F82020C0E90A2280F83020C1
:100520004FF48053436380F83820C0E91022C0E9BB
:10053000121C00F0BBFD40B940F2B000C2F2000056
:100540007F2100F087FB0028CAD06FF00300B0BD08
:1005500080B5FFF785FF0020BDE8804000F0D0B9EE
:100560002DE9F0478EB0012858D840F20822C2F297
:1005700000024C2300FB03260A68374647F8042F85
:10058000CA6832614A68B2608A68F2600969316299
:100590000021B2464AF8241F00283FD0387880074F
:1005A00046F2A008C4F2010840F1D58006F108091E
:1005B00040F6A004C2F20004C4F8008008F160050F
:1005C00040F6D800C2F20000056000F027FA20468D
:1005D00000F0C6F90195CDF81480002006900121A5
:1005E00007912022C0F20502089202908DF82C009B
:1005F0008DF834100C90D9F800104FF0004045F2FF
:10060000216291420FDD4AF64342914218DC45F2E5
:10061000226291421DD0B1F5FA4F18E06FF001004F
:100620000EB0BDE8F087B1F5FA5F12D042F6113294
:1006300091420CD0B1F57A5F18BF4FF0204008E02E
:100640004AF6444081421CBF4BF6803081424FF055
:1006500020400390D9F8001045F2216081420BDD63
:100660004AF64340814215DC45F2226081420FD0B8
:10067000B1F5FA4F16D017E04FF48070B1F5FA5F7C
:100680001CBF42F6113291420FD0B1F57A5F0BD107
:1006900080200AE04AF6444081421CBF4BF680307D
:1006A000814201D1402000E020200490D9F80010C0
:1006B0000620B1F5FA4F06DAB1F5FA5F12D0B1F5BE
:1006C0007A5F0FD006E00DD04BF68030814201D129
:1006D000042007E047F20072C0F2010202209142BA
:1006E00008BF04200990D9F8000045F22161884232
:1006F0000BDD4AF64341884213DC45F22261884211
:100700000DD0B0F5FA4F14D015E0B0F5FA5F14D063
:1007100042F6113188420ED0B0F57A5F0BD1082035
:100720000CE04AF6444188421CBF4BF680318842B7
:1007300001D10A2002E0052000E00C200A9040F6DA
:10074000D800C2F2000040F6A001C2F2000101AAE6
:1007500003F05EFB78BB3878C00733D006F1100099
:1007600008F1E0010191A8F1A00105910021069195
:100770000122CDE907220068013818BF012002904C
:100780008DF82C108DF834104FF480500C904FF0F1
:100790000040039010200490099208200A9040F233
:1007A0005410C2F2000040F21C11C2F2000101AA72
:1007B00003F02EFB20B16FF003000EB0BDE8F08710
:1007C00003F004FB0220CAF8000000200EB0BDE8D0
:1007D000F08700002DE9F0411646044640F2082853
:1007E000C2F200084C2004FB00877961012C1EBF77
:1007F0006FF001052846BDE8F08117F8040F10F0EE
:10080000010F01D1002515E040F2B000C2F2000056
:1008100000F032FD054640F25410C2F2000040F2F2
:10082000A021C2F20001324601F08CF8002D18BF61
:100830006FF00305387880070ED540F6D800C2F275
:10084000000040F60451C2F20001324601F07AF88D
:10085000002818BF6FF003054C2004FB0080012125
:1008600041622846BDE8F08101281CBF6FF00100FD
:10087000704740F20822C2F200024FF04C0300FB26
:10088000032001624FF000007047000080B5FFF7C1
:10089000E7FD0020BDE8804000F044B880B586B098
:1008A00041F24C01C4F2020148B10A6842F0080268
:1008B0000A60096801F008010191019908E00A68DD
:1008C00042F010020A60096801F0100101910199DB
:1008D0000AA131F810100191012102910021039128
:1008E0000221049146F25841C0F6000151F820005F
:1008F00001A901F0EFFA002006B080BD020001005E
:1009000080B546F25841C0F6000151F8202004A1FC
:1009100031F810101046002201F0BEFB002080BD0F
:100920000200010080B546F25841C0F6000151F8BE
:10093000202004A131F810101046012201F0ACFB78
:10094000002080BD0200010040F6D800C2F2000085
:1009500001F046B840F25410C2F2000001F040B875
:1009600070B586B041F24C01C4F202014A6942F00E
:1009700080724A614A6902F080720192019A40F2E3
:100980000822C2F2000292F85020920706D50068B1
:1009900046F2A002C4F20102904201D006B070BD3E
:1009A000086840F002000860086800F0020001904A
:1009B0000198086840F010000860086800F0100016
:1009C000019001984FF4007001900220CDE90200DF
:1009D000032004900626059640F20044C4F6000465
:1009E00004F5406001AD294601F074FA4020019001
:1009F00005962046294601F06DFA06B070BD00004C
:100A0000806A0321016500F033BD0000806A00F0B8
:100A1000B5BD0000806A00F0A5BE000080B584B0BE
:100A200041F24801C4F202010A6842F004020A607D
:100A30000A6802F004020392039A8A6942F0807203
:100A40008A618A6902F080720292029A0A6842F010
:100A500001020A60096801F001010191019940F267
:100A60000821C2F2000191F85010890706D50068EC
:100A700046F20011C4F20101884201D004B080BDE9
:100A800040F62C10C2F200000021C0E902118022C1
:100A900002614FF4007242614FF4006282612022D1
:100AA000C2614FF400520262562242608022C4F2B8
:100AB0000202026040F6D802C2F200029062826234
:100AC00080F8251001F02CF911200621002201F0F8
:100AD00047FB112004B0BDE8804001F03FBB00009F
:100AE000A0F18040A0F5B0314FEA71120320082A2E
:100AF00038BF4FEA711070470168436B0A68FBB159
:100B000022F001020A6001680A6842F400220A60C9
:100B100001680A6842F001020A6090F84C1003294B
:100B200011D1816B21B901680A6842F002020A60A2
:100B300090F8401001290CBF416C0121816402E052
:100B400042F400320A6090F84C100422012908BFD8
:100B5000022280F84C20704740F2B000C2F2000040
:100B6000006D01F06DB8000040F25410C2F20000B8
:100B7000806A01F065B8000040F62C10C2F2000057
:100B800001F05EB880B50168426C22F0030240F6C5
:100B90001C0CC4F2020C02EB0C0340F2084EC4F22F
:100BA000020E7244714538BF02F57E7383640CF106
:100BB0006402C2646FF0070252FA81F14CF6CD4232
:100BC000CCF6CC42A1FB0212C2F30411012202FABC
:100BD00001F1016580BD000041684FF47F7202EAB7
:100BE000810240F6FC03C4F2020302EB030C44331F
:100BF000033101F00301012202FA01F1C0E915C33A
:100C0000C165704710B5D0E913CECCF804E0D0F838
:100C100054C0BCF1000F1CBFD0E916CECCF804E0E4
:100C2000D0E910CE0EF01C0E4FF0010404FA0EF4C1
:100C3000CCF804400468636003688468102C0C4698
:100C400008BF14469C6008BF0A460068C26010BD19
:100C50007047000070B582B00E4604460020019037
:100C600094F85400012801D102252FE0012084F8D6
:100C700054002046FFF7F4FA0546A06D15B140F088
:100C800010001FE041F20211884340F00200A0650D
:100C90002068314603F08CF8206802F0F9FF68B153
:100CA0000198013001900198B0F5912FF4D3A06D17
:100CB00020F0120040F01000012503E0A06D01219A
:100CC00061F30100A065002084F85400284602B0BA
:100CD00070BD0000F0B585B0044640F6EC16C2F2D7
:100CE00000063068002866D141F24C00C4F20200D0
:100CF000016841F004010160016801F00401009104
:100D00000099016841F400510160016801F400514B
:100D100000910099C16B012262F31D71C16341F220
:100D20004805C4F20205286840F0010028602868E0
:100D300000F0010000900098286840F0040028604E
:100D4000286800F0040000900098032000900B2019
:100D500001900027029740F60000C4F600006946A3
:100D600001F0B8F8A5F5825040F68C15C2F20005E6
:100D7000052180224FF480734FF4806C4FF0200ED9
:100D800085E88300C5E9037205F1140080E8085086
:100D90004FF480502862284600F0F2FE284600F00A
:100DA000BFFF2565AC620B200121002201F0D8F9BC
:100DB0000B2001F0D3F930680130306005B0F0BD90
:100DC000F0B581B00D4604460020009094F8540020
:100DD000012801D1022118E1012084F85400206883
:100DE00002F06AFF28B1A06D40F02000A06501214B
:100DF00008E16968052906D8881E03289ABFA7A1BB
:100E000051F8201006214FF6FF77C0F207072A6835
:100E1000206802F055FF206802F04EFF0646206869
:100E200002F032FF304340F0A2802968AA682068AF
:100E3000B2F1004F06D1002202F05EFF20684FF0B1
:100E4000004103E002F058FF2068002102F0AAFFF1
:100E5000D5E904122068C368042940F0808000218D
:100E600002F00CFF06462068002102F007FFC0F3E5
:100E7000846190FAA0F03E4218BFB0FA80F1286871
:100E8000C0F3846290FAA0F3384218BFB3FA83F239
:100E9000914203D12068002102F07CFF20680121EB
:100EA00002F0ECFE06462068012102F0E7FEC0F3E6
:100EB000846190FAA0F03E4218BFB0FA80F1286831
:100EC000C0F3846290FAA0F3384218BFB3FA83F2F9
:100ED000914203D12068012102F05CFF20680221C9
:100EE00002F0CCFE06462068022102F0C7FEC0F3E5
:100EF000846190FAA0F03E4218BFB0FA80F12868F1
:100F0000C0F3846290FAA0F3384218BFB3FA83F2B8
:100F1000914203D12068022102F03CFF20680321A6
:100F200002F0ACFE06462068032102F0A7FEC0F3E3
:100F3000846190FAA0F03E4218BFB0FA80F12868B0
:100F4000C0F3846290FAA0F3384218BFB3FA83F278
:100F500091420CD12068032102F01CFF07E0062615
:100F600006EA930302FA03F32A6802F003FF2068FB
:100F700002F09AFE78BB2968EA68206802F0CCFE8D
:100F8000E8680021C4F27F01884224D12868AA6859
:100F900090FAA0F1B1FA81F1384208BF810E481CE5
:100FA00000F01E034FF0806707EB816101F0F8410C
:100FB0000A2B28BF41F0007100F01F000127874075
:100FC00039430A2B28BF0A3800EB400041EA0051A0
:100FD000206802F091FE688848F20801084210D0AB
:100FE00002F044FE2B680022C5F204020021CCF27C
:100FF00052718B4208BF10F4000109D1216891425F
:1010000013D00021002084F85400C8B201B0F0BD14
:101010000021CCF684318B4208BF10F0807126D1BC
:101020002168914231D00021ECE740F4000002F049
:1010300097FE40F22400C2F200000068800942F6E8
:101040006351C0F23E51A0FB0101880900EB400052
:101050000C2101EB800000900098002104E000BF0B
:1010600000980138009000980028F9D1CAE70021C3
:101070000127C8F20007BB4208BF10F48003C1D1AA
:101080002168914204D00021BCE740F0807001E06B
:1010900040F4800002F064FE0021B3E70C00000081
:1010A00012000000180000000001000070B582B0BE
:1010B000044600200190ACB3A06D30B9204600F08A
:1010C000C5F80020E06584F85400206802F0E4FDD3
:1010D00000281CBF206802F0ADFD206802F0E8FD8A
:1010E000D0B9206802F0B8FD40F22400C2F200003E
:1010F0000068800942F66351C0F23E51A0FB010135
:101100008809022101EB400002E000BF019801388C
:10111000019001980028F9D1206802F0C9FD18B1AA
:1011200000250AE001258EE0A06D40F01000A065CA
:10113000E06D40F00100E0650125206802F0BCFD93
:101140000646A06D00F010003043A06D03D040F0C3
:101150001000012576E020F4817040F00200A065C7
:10116000206802F0A1FD40B90020C5F2040002F0A1
:101170009BFD10B9606802F0E9FD607E616B41EA99
:101180004030D4E902121043084394F8201040EA9A
:101190000140012906D1616A0022CFF6FE7202EBFE
:1011A00041410843A16A00291FBF01F4707108433F
:1011B000E16A08432168CA684CF20703CFF6F0736E
:1011C00002EA030240EA0200C860206802F05CFD07
:1011D000304327D1207EE16C41EA803094F8301012
:1011E00040EA41002168CA6844F206039A4310436A
:1011F000C86094F8382020680169012A0FD140F2B4
:10120000FD7221EA020C04F13C064CCEA16C42EACC
:101210000C021A433243114341F0010101E021F075
:101220000101016120682269016B21F00F01012A8F
:1012300002BFE269013A11430163A06D4FF0010161
:1012400061F30100A065284602B070BD81B041F293
:101250004C00C4F20200016841F4005101600168D1
:1012600001F4005100910099C16B012262F31D71DC
:10127000C16301B07047000010B50446206802F059
:101280001BFD18B994F85400012801D1022010BDAB
:10129000012084F854002046FFF72EF800281EBFD6
:1012A000002184F8541010BDA06D40F6017120EAB1
:1012B000010040F48070A065A16D4FF0000011F4B2
:1012C000805F4FF000011CBFE16D21F00601E16578
:1012D00021684FF01C020A6084F854002068C0683E
:1012E00010F0007F1FBFA06D012161F30D30A065DC
:1012F000206802F0F7FC4FF0000010BD70470000BE
:10130000B0B504464CB12068FFF7EAFB41F248450E
:10131000C2F2000555F8200008B10120B0BD2046FA
:1013200000F072F841F6B840C2F2000001680131E5
:101330000160006801281FD146F20000C4F20100DC
:10134000016821F080410160A168026811430160D9
:10135000016821F47F0101602179012908D1E16848
:101360000022CFF6FF7202EB0141026811430160D7
:10137000016841F0004101602068016821F4714179
:101380000160206804F110030ECB11431943026879
:10139000114301602068016821F00F01016020689D
:1013A000D4E907120368114319430160206881687A
:1013B00021F45F0181602068D4E909120023CFF68F
:1013C000FF7303EB0242114382681143816020687E
:1013D000416801F0070141602068D4E90B12D20096
:1013E00042EA01214268114341602068016841F0EE
:1013F00080010160012084F834002068FFF770FB51
:1014000045F820400020B0BD704700007047000044
:101410007047000090F84C304FF0010C002B18BFC3
:10142000FF2B01D16046704780B5D0F800E0DEF8B0
:1014300000C04FF6FF73CFF6FB0303EA0C03CEF8B0
:1014400000304FF07F4303EA0121012A08BF41F435
:101450008021D0F800C0DCF800301943CCF800102F
:1014600002634FF0000CBDE880406046704700000A
:101470007047000070B50446002C79D0206846F211
:101480000011C4F2010188426CD0002020630126C3
:10149000C4E911662065204600F06EF820680168F6
:1014A00021F400210160207A21680A6822F00053AB
:1014B000012808BF42F000530B60607A21680A6877
:1014C00022F40013012808BF42F400130B602068C7
:1014D000016847F6087291430160E068022804D170
:1014E00020686169026811430160207C21680A68F4
:1014F00022F01003012808BF42F010030B60607C4B
:1015000021680A6822F02003012808BF42F0200366
:101510000B60206841694FF60072C1F6004211402D
:101520004161206804F11C030ECB0025CFF6FF7546
:1015300005EB024211435A1E1143426911434161B6
:1015400060686063E068A063A069E063207C84F861
:1015500040002068016841F00101016084F84C609E
:10156000002070BD606801281CBFE06801288CD194
:10157000012070BD70470000704700002DE9F04F5A
:1015800083B040F2082BC2F2000BDBF87400012894
:1015900000F0E280DBF8500048F2080A40F2017ED9
:1015A000CFF6807E10F0020F00F08A80DBF8540046
:1015B000B0F57A7FC0F0828044F6D351C1F2620167
:1015C000A0FB01029009DBF85420DBE91745DBF8AA
:1015D0006C300293A2FB011291090091DBE923A870
:1015E000DBE9206C610001910235002747F6F879AC
:1015F00000EB070B40F60450C2F2000050F82B003D
:1016000071464FEAE07E00EB1E608E4600120299A2
:101610004843C41700EB546006EBE016A6EB0C063B
:10162000C6EB861646F34074B30003EB146426122F
:101630004E4547F6F872B8BF2212734548F2080CBF
:10164000B8BF624625F8022C40F2A022C2F2000286
:1016500052F82B20D31702EB136212124A43D3170E
:1016600002EBD3520AEB6221A1EB0801C1EB81111D
:1016700041F340738C0004EB13634FEA232ACA45FD
:1016800047F6F871B8BF19127445B8BF6146298092
:101690004FEAE01C4FEA62280198054401370098A0
:1016A0008742A5D340F2082BC2F2000BCBE91FC63C
:1016B000CBE921C8CBE923A848F2080ADBF850009F
:1016C000012849D1DBF85400B0F57A7F44D344F6C1
:1016D000D356C1F26206A0FB06018A09DBF85470FA
:1016E000DBE91730DBF86CC0A7FB0676B409DBE951
:1016F00023654FEA4308002747F6F8793A4440F259
:10170000A021C2F2000151F82220D11702EB116191
:10171000091201FB0CF1CA1701EBD25106EB612251
:10172000521BC2EB821242F34075920002EB156528
:101730002E124E4547F6F873B8BF2B127245B8BF4C
:10174000534603804D1240440137A7422246D5D369
:10175000CBE92256CBF89050012003B0BDE8F04F02
:10176000FFF794B82DE9F04F82B040F20824C2F29E
:101770000004606F012800F0DF80206D48F2080A45
:1017800040F2017BCFF6807B10F0020F00F08A80E0
:10179000606DB0F57A7FC0F08480606DD4E9171277
:1017A000D4F86C8044F6D357C1F26207A0FB070758
:1017B000B8090190D4E9239AD4E9206C480000903C
:1017C000951C002747F6F87E40F60450C2F2000050
:1017D00050F827204FEAE27B02EB1B62121202FB59
:1017E00008F2D11702EB516206EBE211A1EB0C01FA
:1017F000C1EB811141F34076890001EB16631E12A3
:10180000764547F6F874B8BF1C1240F20170CFF667
:1018100080708446614548F2080BB8BF5C4625F8E5
:10182000024C40F2A020C2F2000050F82710CB1763
:1018300001EB1361091201FB08F1CB1701EBD35146
:1018400009EB6120A0EB0A00C0EB801040F340736D
:10185000840004EB13634FEA2329F14547F6F8703F
:10186000B8BF18126445B8BF584628804FEAE21C3A
:101870004FEA612A00980544013701988742A3D3B3
:1018800040F2082BC2F2000B5C46C4E91FC6C4E953
:1018900021CAC4E9239A48F2080A40F2017BCFF634
:1018A000807B206D012847D1606DB0F57A7F43D3EE
:1018B000626DD4E91770D4F86C8044F6D353C1F24A
:1018C0006203A2FB03234FEA9319D4E923547F0058
:1018D000002640F2A02CC2F2000C47F6F87E00BFB2
:1018E0005CF82620D11702EB1161091201FB08F107
:1018F000CA1701EBD25105EB6122121BC2EB821217
:1019000042F34074920002EB14642512754547F6C9
:10191000F873B8BF23125A45B8BF534603804C1220
:10192000384401364E45DBD340F20820C2F20000B5
:10193000C0E92245C0F89040012002B0BDE8F04F58
:10194000FEF706BE10B513460A4604460120002ADB
:1019500018BF002B34D02068006810F4001F35D069
:10196000606B08B9206B60B394F84C0040F0020043
:1019700003282BD1A06A40F60D21C0F60001C162F8
:1019800040F60121C0F600014163D0F81CC040F6CA
:101990001521C0F60001BCF1200F18BF0021016322
:1019A00021681C3100F034FA00281FBFFF2084F8A2
:1019B0004C00012010BD2046FFF79EF84FF00000BC
:1019C00010BD012B04D0A06AC06908B9012010BD68
:1019D000206B0028C8D1A06AC0692028F6D0C3E7D0
:1019E0002DE9F0410446236899685A6801EA02002B
:1019F000070703D50820D860012004E0470708D571
:101A00000420D860022020652046BDE8F041FFF7A1
:101A10002FBD830715D52046FFF7B0FD206BC8B951
:101A2000606BB8B92068416821F00201416094F808
:101A30004C000321022808BF012184F84C10BDE8A6
:101A4000F081C30708D02046FFF794FDA06C013851
:101A5000A06424D0BDE8F081C006206837D5876A2D
:101A6000FBB2002B1A460CBF3F0A0122002117F0DF
:101A7000010F07D10126013116EA570F02D17F0865
:101A80000729F8D3002B0B4608BF0833012707FAB4
:101A900003F3C3622046BDE8F041FFF7B9BCA06B79
:101AA00060B92068416821F00101416094F84C0060
:101AB0000221032808BF012184F84C1094F840004B
:101AC000012814BF0120606CA064BDE8F0815306BA
:101AD00046F20013C4F2010328D511F47F0725D084
:101AE000984223D18068C0F30745002641F2484759
:101AF000C2F200074FF00108E8071CBF57F82600A4
:101B000000280ED00068006810F0400F09D006F1E0
:101B1000100008FA00F02168C86057F82600FFF7A7
:101B2000EDFB6D080136082EE6D193E7920691D5BC
:101B3000B1F1807FFFF48EAF984218BFBDE8F0810D
:101B400081684FF0010010EA116F09D10A0E0021DF
:101B5000013110EA520F04D152080729F8D300E0EE
:101B6000002101F1180290402268D06041F2484003
:101B7000C2F2000050F82100BDE8F041FFF746BC7A
:101B8000B0B504464FF0010C002C02BF01252846D9
:101B9000B0BD21680A6822F001020A60216840F2A3
:101BA0000002C4F2020202F581634FF6F835CBF66B
:101BB000FD75994238BF05F580650D444CF6CD4062
:101BC000CCF6CC40A5FB00054FF6FC70C3F6FF70C9
:101BD00000EA950002F5806299423CBF0022C4F2FF
:101BE0000202C4E910204FF000050D60D4E9100195
:101BF00001F01C010CFA01F141602046FEF7C2FF22
:101C0000A06C0560D4E9130141606068A0F1010097
:101C1000032807D82046FEF7DFFF606D0560D4E992
:101C200016014160C4E91555E565C4E90B55C4E9E1
:101C30000D55E56384F8255084F824502846B0BD3E
:101C400080B5D0E91013D1F800C001680A6803F02C
:101C50001C0E12F0040F1EBF042303FA0EF313EA46
:101C60000C0316D00A6812F0200F02BF0A6822F097
:101C700004020A60D0E9101202F01C024FF00403C3
:101C800003FA02F24A60016B002948D0BDE88040A7
:101C90000847930720D5022303FA0EF313EA0C0337
:101CA0001AD00A6812F0200F06D10A6822F00A0240
:101CB0000A60012180F82510D0E9101202F01C0200
:101CC000022303FA02F24A60002180F82410C16A5C
:101CD00029B3BDE880400847110720D5082101FA43
:101CE0000EF111EA0C0108BF80BD01680A6822F0FC
:101CF0000E020A60D0E9101202F01C024FF001033C
:101D000003FA02F24A60C36380F825304FF0000105
:101D100080F82410416B11B1BDE88040084780BDB8
:101D2000F0B581B00446002C02BF012001B0F0BD27
:101D3000206840F2000CC4F2020C0CF581624FF6F0
:101D4000F833CBF6FD73904238BF03F5806303444C
:101D50004CF6CD41CCF6CC41A3FB01134FF6FC7100
:101D6000C3F6FF7101EA93010CF5806390423CBF1A
:101D70000023C4F20203C4E910314FF0020084F8DA
:101D800025002068016847F6F07221EA020CD4E9C8
:101D90000223D4E9041E04F11807E0CF42EA0C0242
:101DA00042EA030241EA020141EA0E0141EA050169
:101DB00041EA060141EA070101602046FEF7E2FE22
:101DC000A068B0F5804F04BF00206060A06C21794E
:101DD0000160D4E9130141606068A0F101000328AB
:101DE00009D82046FEF7F8FE606D00210160D4E9B5
:101DF0001601416003E00020C4E91500E065002001
:101E0000E063012184F8251084F8240001B0F0BDBE
:101E100010B5044694F82400012820D0012084F84D
:101E2000240094F82500012816D1022084F825000A
:101E30000020E063D4F800C0DCF8000020F00100CE
:101E4000CCF800002046FEF7DDFE2068226B01681A
:101E500042B141F00E010CE0002084F82400022081
:101E6000C0B210BD21F0040101602068016841F09A
:101E70000A010160A06C016811F4803F1EBF016877
:101E800041F480710160606D00281EBF016841F45B
:101E9000807101602068016841F0010101604FF02C
:101EA0000000C0B210BD000070B505466E1C00F009
:101EB000FBF8044636B140F2A600C2F200000078FA
:101EC000054401E04FF0FF3500F0EEF8001BA8429A
:101ED000FAD370BD2DE9F04F82B00E68002E00F0ED
:101EE000D78041F60042C4F600020827904208BF9E
:101EF000072700F138424FEAB223072B38BF4FEAD9
:101F0000B227009700234FF0030E40F2004AC4F2BC
:101F1000010A0025012400BFA4F10109012202FAEF
:101F200009FB16EA0B0800F0A8804E6806F00306CD
:101F3000013E012E13D80EFA05F6D0F808C02CEA9F
:101F40000606CA68AA4032438260426822EA0B024F
:101F50004E68C6F3001606FA09F6324342604A6834
:101F600002F00302032A08D00EFA05F2C66826EA38
:101F700002028E68AE403243C2604A6802F0030239
:101F8000022A14D103F01C020F2707FA02FC4FF6B5
:101F9000FC76C7F6FF7606EA590707443E6A26EA4A
:101FA0000C0C0E6906FA02F242EA0C023A620EFAD0
:101FB00005F2076827EA02024F6807F00307AF40FF
:101FC0003A4302608A79920757D041F26002C4F224
:101FD000020217463A6842F001023A603A6802F09B
:101FE0000102019229F003025244019F4FF6084773
:101FF000CFF6FF77B94652F809C003F00C060F2759
:10200000B7402CEA070C009F07FA06F64CEA0607D1
:1020100042F80970DAF8082022EA08024F6817F43B
:10202000801F18BF42EA0802CAF8082040F20C429A
:10203000C4F201021646326822EA08024F6817F419
:10204000001F18BF42EA08023260DAF8042022EAD0
:1020500008024F6817F4003F18BF42EA0802CAF8A6
:102060000420DAF8002022EA08024F6817F4803FC3
:1020700018BF42EA0802CAF800200E6836FA04F2D5
:1020800003F1040305F1020504F101047FF444AFF8
:1020900002B0BDE8F08F000000F12803002A18BF4D
:1020A00000F118031960704741F6B440C2F2000015
:1020B0000068704740F2A600C2F20000007841F6C6
:1020C000B441C2F200010A68104408607047000081
:1020D00080B542F20000C4F20200016841F4807150
:1020E0000160032000F04CF80F2000F009F80028F0
:1020F0001CBF012080BD00F02FF84FF0000080BD14
:10210000B0B5044640F2A600C2F2000000780028F4
:1021100002BF01252846B0BD4FF47A71B1FBF0F043
:1021200040F22401C2F200010968B1FBF0F001F0B5
:102130005DFD4FF001050F2C0CD858B900254FF06C
:10214000FF302146002200F00BF840F2A800C2F256
:10215000000004602846B0BD7047000004F05CB881
:1021600070B514460D46064604F068F82946224626
:1021700001F0FCFE01463046BDE8704004F06EB848
:1021800004F07EB801680122C0F80025002280F822
:10219000F424886940F000608861486D40F0805008
:1021A00040F00300486500207047000070470000C1
:1021B0000068416200207047D0F800C0DCF82400BD
:1021C000F1B180B5DCF8283000EB1343B1F1010E1A
:1021D0000CD00020002100BF0CEB8000D0F80401DF
:1021E00003EB10430131C8B28645F5D80CEB8E00E5
:1021F00043EA0241C0F80411BDE880400020704766
:1022000040EA0240CCF8280000207047D0F80805CA
:1022100002F0BCBF01EBC10200EB8202926CD0F86D
:10222000080502F011BF000001EBC10200EB8202C1
:10223000D2F88822D0F8080502F062BFD0F808056D
:1022400002F0A6BF01F00F0202EBC20200EB820314
:1022500003F13C0211F0800F08BF03F51F72006804
:10226000114603F0DBBD000010B50A46044602F03B
:102270000F0000EBC00104EB810303F13C0112F0FD
:10228000800F08BF03F51F71C2F3C0124A700870B7
:1022900094F8BC04012802BF0220C0B210BD4FF068
:1022A000010084F8BC04206803F07EFB4FF00000BE
:1022B00084F8BC04C0B210BDB0B50A46044602F0B2
:1022C0000F006168884282BF0125E8B2B0BD00EB13
:1022D000C00104EB810303F13C0112F0800F08BF41
:1022E00003F51F71C2F3C0124A7000258D7008708B
:1022F00094F8BC04012802BF0225E8B2B0BD4FF03B
:10230000010084F8BC04206803F082FC84F8BC540B
:10231000E8B2B0BD10B5044694F8BC04012802BF71
:102320000220C0B210BD4FF0010084F8BC04206848
:1023300011F0800F02D103F0C3FD03E001F00F01A3
:1023400003F0E6FD002084F8BC04C0B210BD00001C
:1023500070B50C46064604F00F0000EBC00106EB1A
:10236000810505F13C0114F0800F08BF05F51F71D0
:10237000C4F3C0154D7008708A600B71487800284E
:102380001CBF08784883022B04BF0020487196F8D0
:10239000BC04012802BF0220C0B270BD4FF0010092
:1023A00086F8BC04306803F067FA4FF0000086F846
:1023B000BC04C0B270BD000080B501F00F0C0CEB86
:1023C000CC0100EB81014FF0000E01F5227787E888
:1023D0000C4081F87DE281F87CC201F51F71006834
:1023E00003F062FC002080BDB0B5044601F00F058B
:1023F0006268012095422AD801EBC10204EB8203F6
:1024000005EBC50204EB82023C3211F0800F08BFDD
:1024100003F51F72C1F3C01151709070157094F8DC
:10242000BC04012802BF0220C0B2B0BD4FF00100C1
:1024300084F8BC042068114603F012FC25B920681A
:1024400004F2C44103F0C2FB002084F8BC04C0B213
:10245000B0BD000080B501F00F0C0CEBCC0100EB1F
:1024600081014FF0000E01F1480787E80C4001227E
:1024700081F83D2001F83CCF006803F015FC0020F6
:1024800080BD00002DE9F04F83B08246DAF800608D
:10249000304603F073FD10B103B0BDE8F08FDAF8F9
:1024A000000003F099FD0028F6D0D6F80808C0F324
:1024B0000D20CAF8FC04DAF8000003F08DFD10F0DE
:1024C000020F1FBFDAF80000416901F0020141610B
:1024D00006F50067DAF8000003F07EFD10F0100F3B
:1024E00041D0DAF80000816921F010018161346A7D
:1024F000C4F3434004F00F0506281DD002282CD158
:1025000047F6F070044028D005EBC5000AEB8005C3
:10251000D5F88812C4F30F12304603F061FDD5F8E8
:10252000880200EB1410C5F88802D5F8900200EB81
:102530001410C5F8900210E00AF2C4413046082297
:1025400003F04EFD05EBC5000AEB8000D0F89012B9
:10255000C4F30A121144C0F89012DAF8000081693D
:1025600041F010018161CDE90176DAF8000003F055
:1025700033FD10F4002F57D0DAF8000003F00AFD05
:10258000002851D0029901F530644FF0000B40F261
:102590007F29002680465FEAC8703CD0DAF8000048
:1025A000F5B2294603F010FD074617F0010F05D0DC
:1025B0000120A0605046314601F012FD380705D5D4
:1025C0000820A0605046314601F0F2FCF80644BFF6
:1025D0001020A060B80715D50298406910F0800F50
:1025E0001FBF0199486840F4806048601AF80900EC
:1025F000012805D10AF809B05046294600F022FA10
:102600000220A060B80644BF2020A060B80444BFE8
:102610004FF40050A06009F1240920344FEA58001B
:102620000136BBEB580FB5D1DAF8000003F0D4FC4B
:1026300010F4802F56D0DAF8000003F0A3FC002835
:1026400050D0029901F510644FF0000B3F25002691
:1026500080465FEAC8703DD0DAF800005FFA86F97C
:10266000494603F09FFC074617F0010F0ED006F015
:102670000F00012303FA00F0019A516B21EA0000D8
:102680005063A36050464946FFF7C4FD380744BF76
:102690000820A060F80644BF1020A060780644BF60
:1026A0004020A060B8070FD50298314603F030FCF7
:1026B0001AF80500012805D10AF805B05046494628
:1026C00000F0BCF90220A060380603D55046314620
:1026D00001F0A8FC243520344FEA58000136BBEB4A
:1026E000580FB5D1DAF8000003F076FCB0F1FF3FE7
:1026F000DDF804901ADCD9F8040020F00100C9F8D4
:1027000004009AF8F404012807D100208AF8F404A0
:1027100050460021FFF74AFD02E0504600F088FADB
:10272000DAF80000416901F000414161DAF8000087
:1027300003F052FC10F4006F0DD0D9F8080010F02F
:10274000010F1CBF504600F0BDFADAF800004169E5
:1027500001F400614161DAF8000003F03DFC10F083
:10276000006FDDF808801AD0DAF80000416901F046
:10277000006141619AF8F40418B1504600F0A2FAE1
:102780000DE001208AF8F404DAF80000406DC0F38F
:102790008300CAF8F80450460121FFF707FDDAF874
:1027A000000003F019FC10F4805F5DD0D9F804003C
:1027B00020F00100C9F80400DAF80000102103F04D
:1027C000A7FBDAF80400F0B108F5106000214FF61D
:1027D0007F3200BF8260036823F400130360C0F8F7
:1027E0000822D0F8003223F40013C0F80032D0F8E9
:1027F000003243F00063C0F8003220300131DAF8D3
:1028000004309942E6D3D9F81C0040F00110C9F811
:102810001C00DAF8300040B1D9F8840040F00B0019
:10282000C9F8840009F1440008E0D9F8140042F224
:102830002B010843C9F8140009F11000016841F0A8
:102840000B010160D9F8000020F4FE60C9F8000017
:10285000DAF800000AF2C44103F0B8F9DAF800002F
:10286000416901F480514161DAF8000003F0B4FBE2
:1028700010F4005F1CD0DAF8000003F047F8DAF833
:10288000000003F06FFBCAF81000DAF8005000F007
:10289000E5FD01469AF81020284603F01FFC50463B
:1028A00000F0B8F9DAF80000416901F40051416123
:1028B000DAF8000003F090FB10F0080F08D0504643
:1028C00000F0BAF9DAF80000416901F0080141614D
:1028D000DAF8000003F080FB10F0800F1AD0D8F86F
:1028E000180020F08000C8F81800DAF80400022868
:1028F00010D3012440F2A3251AF80500012803D1C2
:10290000E1B25046FFF79EFC24350134DAF80400AA
:102910008442F1D3DAF8000003F05EFB10F4801F6C
:1029200020D0DAF80400022816D30AF1640008F572
:1029300012610122012300BF0F68B7F1FF3F04DCE1
:102940000778012F08BF00F8012C24302031013313
:10295000DAF80470BB42EFD3DAF80000416901F401
:1029600080114161DAF8000003F036FB10F4001F1B
:102970003AD0DAF80400022830D30AF5297008F5B5
:1029800032610122012300BF0F68B7F1FF3F17DC5E
:102990000678012E14D107F48037DAF8FC6406F0CB
:1029A0000106B7420CD100F8012CD8F8187047F096
:1029B0008007C8F81870D8F8147017F0800F07D087
:1029C000243020310133DAF80470BB42DCD305E057
:1029D000D9F8040040F40070C9F80400DAF80000E7
:1029E000416901F400114161DAF8000003F0F4FAE2
:1029F00010F0804F08D05046FFF708FCDAF80000CE
:102A0000416901F080414161DAF8000003F0E4FA25
:102A100010F0040F3FF440ADDAF80000446814F001
:102A2000040F1CBF5046FFF709FCDAF800004168AC
:102A300041EA0401416003B0BDE8F08FD0F8080519
:102A400002F002BCD0F8080502F01CBC2DE9F04FE2
:102A50008BB00446002C00F08280256894F8BD04F9
:102A600028B9002084F8BC04204600F091F8032027
:102A700084F8BD04E86B10F4807F04BF0020E060A0
:102A8000206803F09DF820680A9004F1040E9EE887
:102A90000E5804F11C0A9AE8C007D4E90C50CDE99D
:102AA00008508DE8005803A880E8C0070A9802F093
:102AB0003DFF002850D120680025002103F0BEFA18
:102AC000606868B3606801210023002203EBC30340
:102AD00004EB830383F83D1083F83C20D7B2A3F8BE
:102AE000567083F84050C3E91155DD640132D3B20A
:102AF0009842EBD8A0B100210023002203EBC303CE
:102B000004EB830383F87D1283F87C2283F8801220
:102B1000C3E9A111C3F88C120132D3B29842EDD8A7
:102B200020680A90271D8ECF04F1140E9EE84058AD
:102B300004F1240A9AE80007D4E90C50CDE90850C2
:102B4000CDE9007602A880E8005805A880E80007D3
:102B50000A9802F097FF30B1022084F8BD040120EA
:102B60000BB0BDE8F08F002084F83800012084F815
:102B7000BD04606A012804BF2046FFF703FB2068FC
:102B800002F072FF4FF000000BB0BDE8F08F0000C4
:102B90000068B0F1A04F18BF704710B586B041F281
:102BA0004C04C4F20204206840F001002060206858
:102BB00000F00100019001984FF4C05001904FF0D7
:102BC000030004904FF0020002904FF000000390C9
:102BD0004FF00A00059001A94FF09040FFF77AF9F5
:102BE000206840F480502060206800F480500090FD
:102BF00000984FF043004FF004014FF00002FFF740
:102C0000AFFA4FF04300FFF7A9FA06B0BDE8104055
:102C10007047000010B50446D4F8080502F062FBC6
:102C2000D4F808050121BDE8104002F0ABBB00005C
:102C3000D0F8080502F088BBD0F8080502F090BB78
:102C400010B5044694F8BC04012802BF0220C0B2AB
:102C500010BD4FF0010084F8BC0484F838102068DF
:102C600003F022FA4FF0000084F8BC04C0B210BD9B
:102C7000D0F8082500F2C441104602F08FBB0000D6
:102C800010B5044694F8BC04012802BF0220C0B26B
:102C900010BD20684FF0010184F8BC14A16A01291D
:102CA00002BF816B41F480318163206803F002F937
:102CB000206802F0CBFE4FF0000084F8BC04C0B2E4
:102CC00010BD0000D0F8080502F0A8BB47F20001D3
:102CD000C4F2000170B30A68B0F5007F58D1D1F892
:102CE000800040F48070C1F8800002F4C060B0F54C
:102CF000806F51D10868012262F34A20086040F2D7
:102D00002400C2F200000068322250434DF6836274
:102D1000C4F21B32A0FB02026FEA92404A6900280B
:102D20001CBF013012F48062F8D1486910F4806F42
:102D300032D02AE00868D1F8802022F48072C1F8ED
:102D4000802000F4C060B0F5806F25D108680122B2
:102D500062F34A20086040F22400C2F200000068DA
:102D6000322250434DF68362C4F21B32A0FB0202B2
:102D70006FEA92404A6900281CBF013012F4806259
:102D8000F8D1486910F4806F06D00320C0B27047B4
:102D9000022060F34A220A600020C0B2704700009F
:102DA00047F20400C4F20000016841F48061016050
:102DB0007047000047F20000C4F20000016801F40F
:102DC000C061B1F5806F0FBF4FF48060D0F8800014
:102DD0004FF4007101EA40007047000047F2000024
:102DE000C4F20000016841F4807101607047000086
:102DF0002DE9F04F83B004466078000741F2880661
:102E0000C4F2020624D5E06E4FEA7010042809D8F7
:102E1000DFE800F0030A12181800201D002101F05D
:102E200071F906E0012514E004F12000002101F011
:102E300001FA05466DB905E056F87C0C40F4803087
:102E400046F87C0C7069E16E20F0E0000843706188
:102E500000256078C00647F2000AC4F2000A01D4D7
:102E60002F462BE0206F4FEA302004280AD82F4647
:102E7000DFE800F0030C131A1A00201D002101F0F6
:102E800041F908E001274FF0010B18E004F12000A0
:102E9000002101F0CFF9074606E056F87C0C40F41B
:102EA000803046F87C0C2F46002FBB4607D1706956
:102EB000216F20F4E060084370610027AB46A078E2
:102EC000800702D4B846D9465BE056F8300C10F0C3
:102ED000805F0DD156F8300C40F0805046F8300C31
:102EE00056F8300C00F0805002900298012000E06B
:102EF00000200190DAF8000040F48070CAF8000069
:102F0000FFF7D2F8054600BFDAF8000010F4807F22
:102F100009D1FFF7C9F8401B0228F5D94FF0030883
:102F20004FF0030924E017B1B846B94620E0B06875
:102F300010F4407012D0D4F8981088420BD0B068CA
:102F4000B16841F48031B160B16821F48031B16081
:102F500020F44070B060C00740F08381B068D4F8BE
:102F6000981020F440700843B0604FF00008D94634
:102F70000198012802BF56F8300C20F0805046F826
:102F8000300C2078C00705D03068E16B20F00300DA
:102F9000084330602078800705D53068216C20F028
:102FA0000C00084330602078400705D53068616C1C
:102FB00020F03000084330602078000705D53068E5
:102FC000A16C20F0C000084330602078C00605D511
:102FD0003068E16C20F4407008433060207880064F
:102FE00005D53068216D20F440600843306060787A
:102FF000800705D53068616E20F4402008433060BA
:103000006078400705D53068A16E20F44010084371
:1030100030602078400605D53068616D20F440505E
:10302000084330602078000605D53068A16D20F493
:103030004040084330606078C00705D03068E16DDB
:1030400020F4403008433060A078C00605D5706990
:10305000216E20F0030008437061607880061CD563
:103060003068616F20F0406008433060606FB0F1FD
:10307000806F09D0B0F1006F02BF56F87C0C40F4AD
:10308000801046F87C0C08E0201D012101F03AF880
:103090008046B8F1000F18BFC146A078000734D5AC
:1030A000A16F7069B1F5804F04D106F1140140F4AD
:1030B000804008E020F4804070613068A16F20F00B
:1030C0004060084331460860A06FB0F5804F0CD0D7
:1030D000B0F1806F10D0B0F1006F02BF56F87C0CD9
:1030E00040F4801046F87C0C0FE056F87C0C40F45D
:1030F000803046F87C0C08E0201D012101F002F828
:103100008046B8F1000F18BFC146A07840071CD513
:103110003068E16F20F0406008433060E06FB0F14C
:10312000806F09D0B0F1006F02BF56F87C0C40F4FC
:10313000801046F87C0C08E0201D012100F0E2FF21
:103140008046B8F1000F18BFC1466078400614D51C
:103150003068D4F8801020F0405008433060D4F834
:103160008000B0F1805F08D1201D022100F0CAFF6D
:103170008046B8F1000F18BFC146A078C00706D03E
:103180007069D4F8841020F0040008437061A078BE
:10319000800606D57069D4F8881020F0180008431E
:1031A0007061A07840062CD54FF4D0355AF8050050
:1031B00020F080504AF80500FEF776FF074600BF72
:1031C0005AF8050010F0005F07D0FEF76DFFC01B36
:1031D0000228F5D94FF003080FE0B8F1000F0CD129
:1031E0007069D4F88C1020F440300843706104F109
:1031F0002000022101F01EF88046B8F1000F18BF30
:10320000C146A078000613D57069D4F8901020F458
:10321000805008437061D4F89000B0F5805F07D10A
:1032200004F12000012101F005F8002818BF8146B3
:10323000E078C00711D07069D4F8941020F44010E1
:1032400008437061D4F89400B0F5001F02BF56F82F
:103250007C0C40F4801046F87C0C484603B0BDE876
:10326000F08FFEF721FF05464FF003084FF00309EA
:10327000B06810F0020F07D1FEF716FF401B41F2B5
:1032800088318842F4D973E6002FB846B9467FF4F6
:103290006FAE63E62DE9F04381B089460446C4B3BE
:1032A00041F20807C4F20207D7F8F80F00F00F0048
:1032B00048450DD2D7F8F80F20F00F0040EA09007A
:1032C000C7F8F80FD7F8F80F00F00F00484522D1E3
:1032D000207880070AD5A068396801F0F00188429B
:1032E00081BF396821F0F001084338602078C007B9
:1032F00055D060684BF20046C0F2C44602280CD09C
:10330000032811D157F8080C10F0007F13D10120C9
:1033100097E0012095E0012093E057F8080C10F4A5
:10332000003F11D101208CE057F8081C40B148053E
:103330000AD4012085E001F015F8B0420CD907E06D
:10334000880701D401207CE000F08EF8B04203D958
:10335000386810F0F00F78D04FF0000838686168D6
:1033600020F0030008433860FEF79EFE064641F257
:10337000883500BF3868616800F00C00B0EB810F41
:1033800006D0FEF791FE801BA842F3D9032058E037
:10339000B8F1800F02BF386820F0F0003860207864
:1033A00080070AD5A068396801F0F00188423FBF64
:1033B000396821F0F00108433860D7F8F80F00F0C1
:1033C0000F0048450DD9D7F8F80F20F00F0040EA5C
:1033D0000900C7F8F80FD7F8F80F00F00F004845BC
:1033E0002ED12078400705D53868E16820F4E060E8
:1033F000084338602078000706D53868216920F432
:10340000605040EAC100386000F02EF83968C1F31E
:10341000031146F21842C0F60002515C01F01F0190
:10342000C84040F22401C2F20001086040F2A80046
:10343000C2F20000006801B0BDE8F043FEF760BED4
:103440000120C0B201B0BDE8F0833868082161F303
:10345000071038604FF0800880E7000040F2240039
:10346000C2F200000068704741F20C01C4F2020190
:1034700051F8042C086812F00C0342F2004CC0F220
:10348000F40C05D00C2B04BF00F00300012833D14D
:1034900051F80C0C10F0080F03D1D1F88800000A85
:1034A00002E051F80C0C000900F00F0046F228422F
:1034B000C0F6000252F82020002B104618BF002052
:1034C0000C2B18BF7047086840F301000028B8BFF4
:1034D000624608680B68C3F306235A43C0F303101F
:1034E0000130B2FBF0F00968C1F34161022202EB46
:1034F0004101B0FBF1F0704703F00F00042804BF56
:103500006046704708286046F5D000200022D7E7C3
:1035100070B586B014460D4641F24C06C4F2020660
:10352000306840F001003060306800F00100019028
:1035300001984FF4807001900220029004900020C6
:103540000390059001A94FF09040FEF7C3FC44EAB8
:10355000050056F8441C21F0FE41084346F8440C8F
:1035600006B070BD2DE9F04782B00446002C00F093
:103570006E8241F20407C4F20207786800F00C087A
:10358000B86800F003092078C00641F2000AC4F2CE
:10359000020A52D42078C00712D0B8F1080F06D022
:1035A000B8F10C0F08BFB9F1030F40F03081DAF821
:1035B000000010F4003F03D06068002800F047824C
:1035C0002078800719D5B8F1040F06D0B8F10C0F98
:1035D00008BFB9F1020F40F02D81DAF8000010F4B5
:1035E000806F03D0E068002800F0318238682169DC
:1035F00020F0FE4040EA016038602078000740F18A
:10360000BB806169D7F89000002900F0A28040F0EB
:103610000100C7F89000FEF747FD0546D7F8900077
:1036200010F0020F40F0A880FEF73EFD401B02287C
:10363000F4D9032002B0BDE8F087B8F1000F05D03F
:10364000B8F10C0F08BFB9F1010F68D1DAF800002A
:1036500010F0020F03D0A069002800F0F881206A62
:10366000DAF8001011F0080F06BFD7F8901009091A
:10367000DAF8001001F0F00188421AD900F0AEFE2D
:10368000002840F0E481DAF8000040F00800CAF8B1
:103690000000DAF80000216A20F0F0000843CAF8C0
:1036A00000003868E16920F47F4040EA012038607A
:1036B00018E0DAF8000040F00800CAF80000DAF874
:1036C0000000216A20F0F0000843CAF800003868C2
:1036D000E16920F47F4040EA01203860B8F1000F32
:1036E00000F08E80FFF7C0FE7968C1F3031146F247
:1036F0001842C0F60002515C01F01F01C84040F2C0
:103700002401C2F20001086040F2A800C2F20000E9
:103710000068FEF7F5FC002840F052823AE7A16904
:10372000DAF80000002900F0A08040F00100CAF89B
:103730000000FEF7B9FC0546DAF8000010F0020FB1
:1037400040F08981FEF7B0FC411B03200229F3D928
:1037500036E220F00100C7F89000FEF7A5FC054610
:10376000D7F8900010F0020F06D0FEF79DFC411B29
:1037700003200229F4D923E22078400740F1BB80DE
:10378000786D10F0805F0BD1786D40F080507865D7
:10379000786D00F08050019001984FF0010901E030
:1037A0004FF0000946F20006CFF6FE765AF8060002
:1037B00010F4807F14D15AF8060040F480704AF863
:1037C0000600FEF771FC05465AF8060010F4807FEB
:1037D00006D1FEF769FC411B03200229F4D9EFE171
:1037E000A168012907D0D7F88C00052951D140F0F4
:1037F0000400C7F88C00D7F88C0040F0010050E0BE
:10380000206A00F0EBFD002840F021816AE7616842
:10381000B1F5803F09D0DAF80000B1F5A02F40F0F3
:103820004F8140F48020CAF80000DAF8000040F42C
:1038300080304DE1E168DAF80000002900F02181D4
:1038400040F48070CAF80000FEF72EFC054600BF69
:10385000DAF8000010F4806F7FF4C8AEFEF724FCA5
:10386000411B03200229F3D9AAE120F00100CAF884
:103870000000FEF719FC0546DAF8000010F0020F10
:103880003FF488AEFEF710FC411B03200229F3D958
:1038900096E120F00100C7F88C00D7F88C0020F0EA
:1038A0000400C7F88C00A668FEF7FEFB05466EB163
:1038B00041F28836D7F88C0010F0020F14D1FEF7D1
:1038C000F3FB411B0320B142F4D979E141F2883680
:1038D000D7F88C0010F0020F06D0FEF7E5FB411B75
:1038E0000320B142F4D96BE1B9F1010F02BF786D49
:1038F00020F080507865207880062BD5616AD7F853
:10390000940099B140F00100C7F89400FEF7CCFB99
:10391000054600BFD7F8940010F0020F1AD1FEF749
:10392000C3FB411B03200229F4D949E120F0010027
:10393000C7F89400FEF7B8FB054600BFD7F894001F
:1039400010F0020F06D0FEF7AFFB411B0320022947
:10395000F4D935E1A06A002800F03581022851D160
:10396000B868E16A00F003028A4263D1216B6FF00C
:103970000F0202EB011100F0F0028A425AD1616B92
:1039800000F4FE42B2EB012F54D1A16B00F078425B
:10399000B2EBC16F4ED1E16B0022CFF6E07202EACA
:1039A0000151A1F5001100F4C0028A4242D1216CFC
:1039B0004FF07E4202EA016101F17E4100F0C060F9
:1039C000884237D1DAF8000010F0007F40F0FB8029
:1039D000DAF8000040F08070CAF80000B86840F0E3
:1039E0008070B860FEF760FB0446DAF8000010F063
:1039F000007F40F0E880FEF757FB011B03200229FF
:103A0000F3D9DDE0B8F10C0F21D0DAF8000020F096
:103A10008070CAF80000FEF747FB0446DAF80000A1
:103A200010F0007F41D0FEF73FFB011B032002296D
:103A3000F4D9C5E0B8F10C0F09D0DAF8000010F0A5
:103A4000806F04BFDAF8000010F0805F66D00120BC
:103A500002B0BDE8F087DAF8000040F00800CAF8CC
:103A60000000DAF80000216A20F0F0000843CAF8EC
:103A700000003868E16920F47F4040EA01203860A6
:103A800088E520F48070CAF80000FEF70DFB0546BB
:103A9000DAF8000010F4806F3FF4AFADFEF704FBDE
:103AA000411B03200229F3D98AE0B8684FF6FC7164
:103AB000CFF6EE610840B860002002B0BDE8F087A4
:103AC00020F48030CAF80000DAF8000020F48020EA
:103AD000CAF800006668FEF7E7FA05467EB141F2D3
:103AE000883600BFDAF8000010F4003F7FF468ADBC
:103AF000FEF7DAFA411B0320B142F3D960E041F24C
:103B00008836DAF8000010F4003F3FF459ADFEF7B4
:103B1000CBFA411B0320B142F3D951E0DAF800009F
:103B200020F08070CAF80000FEF7BEFA0546DAF809
:103B3000000010F0007F06D0FEF7B6FA411B03200C
:103B40000229F4D93CE0B86804F12C064ECE6FF09F
:103B50000F0505EB021248F20C05C0F29D15284036
:103B60000843104340EA0320E16B0022CFF6E072E5
:103B700002EA0151A1F50011084340EAC660216C38
:103B80004FF07E4202EA016101F17E410843B860D4
:103B9000DAF8000040F08070CAF80000B86840F021
:103BA0008070B860FEF780FA0446DAF8000010F082
:103BB000007F08D1FEF778FA011B03200229F4D90F
:103BC00002B0BDE8F087002002B0BDE8F087000039
:103BD0004EF21001CEF200010A6822F0040304281C
:103BE00008BF42F004030B607047000000F054BCB3
:103BF000FEE7000080B540F67033C2F200034FF0DC
:103C0000100C4FF0400EC3E90010C3E902C2C3F824
:103C100010E001201946BDE88040FCF7A1BC00007F
:103C200081684FF6C072C7F6FF72114041F0020181
:103C30008160704781684FF6C072C5F6FF7211400F
:103C40008160704781684FF6C072C7F6FF721140FD
:103C500041F001018160704781684FF6C072C6F67D
:103C6000FF72114041F080518160704740F208308E
:103C7000C5F20400006800F0E070704700EB8100BE
:103C8000006E00F0F84070478068C0F3C0007047D5
:103C90008068C00F704700008068C0F340707047B4
:103CA0008068C0F340007047806800F001007047F2
:103CB0008068C0F3007070478068C0F38000704770
:103CC00001F01F0C1F2303FA0CF3C1F3012100EBD9
:103CD0008100016B9943C2F3846202FA0CF2114332
:103CE0000163704781684FF6C072C7F6FF721140DA
:103CF00041F0040181607047C1F3045C072303FABB
:103D00000CF3C1F3406100EB81004169994302FA71
:103D10000CF211434161704780B541F0784343F0A4
:103D2000FF634FF6FF7CC0F2070C83EA0C0ED0F85D
:103D3000B03003EA0E0302F018022CFA02F211402E
:103D40006FF3DF411943C0F8B01080BD40F2083175
:103D5000C5F204010A6822F47C121043086070471F
:103D600040F20831C5F204010A6822F0E072104303
:103D70000860704702F0F8421A4300EB8100016EC0
:103D80004FF20003C0F2FF331940114341F00041EC
:103D90000166704700EB8100016E21F00041016671
:103DA00070470000426922F00042114341617047B0
:103DB00082684FF6C073C3F6FF731A4001F080416A
:103DC000114341F0004181607047000010B586B09A
:103DD0000120FCF77DFB40F2B004C2F20004204653
:103DE000FCF778FF0420C0F66000009006200190E8
:103DF000022002907F200390002004904FF4006086
:103E0000059069462046FCF7DBFF06B010BD0000B8
:103E1000F0B583B01546044641F24800C4F20200F2
:103E2000026842F004020260026802F00402029298
:103E3000029A826942F080728261826902F0807225
:103E40000192019A026842F001020260006800F0EB
:103E5000010000900098002781F8347028690860FC
:103E600095F8300008714FF080408860286AC8607B
:103E7000E86AC1E904070420C1E908070A20C1E98A
:103E80000A07686A086368698861A869C8610846A2
:103E9000FDF736FA0126002862D184F84C702868B4
:103EA00020606868606026726672E760277495F823
:103EB0002800607467614FF40050A061A868E06159
:103EC000E868C4E908062046FDF7D4FA002847D17F
:103ED000E969012620460122FDF79CFA00283FD11E
:103EE0002868002646F28011C4F20101884237D1C9
:103EF00040F2A810C2F200005721C0E90116C660C6
:103F0000802101614FF4007141614FF400618161D2
:103F10002021C1614FF4005101624421C4F2020129
:103F20000160A062846240F20824C2F20004E16DE4
:103F3000012904BF002180F8251040F2A810C2F228
:103F40000000FDF7EDFEE06D4FF00006012807D1FF
:103F50000E2006210022FEF703F90E20FEF7FEF8E0
:103F6000304603B0F0BD00007047000000F00700CD
:103F700000F1040CC31EBCF1070F38BF002380F012
:103F80000700042828BF04204FF0010C0CFA00F0B1
:103F90000138084098400CFA03F1013911400843F8
:103FA0007047000041F2A870C2F20000FEF76ABA42
:103FB000026802EB4111136CD1F808CB43F20B02FB
:103FC000C4F65472934238BFFEF752BE1CF400424E
:103FD0001EBF01F530614FF400428A60FEF748BE13
:103FE00080B5036803EB4112D3F840E0D2F808CB68
:103FF00043F20A13C4F654739E450DD102F53062A4
:104000005FEA0C4342BF4FF40040906080BD5FEA1E
:104010008C6344BF20239360C9B2BDE88040FEF7A3
:1040200003B900002DE9F04F83B001EBC10200EBB2
:104030008203994659F84C5F4F4657F8046FB542D2
:104040005AD300689A465AF8448FCDE9011000EB24
:10405000411EDEF818C93868D9F8001000228142E4
:1040600088BF0122AD1B454588BF4546A9B303352E
:10407000AD081FFA8CF6AE4228BF81422DD90EF54D
:10408000106B03F14805019AD6B200BFA1EB0008FE
:10409000DAF80000804588BF80461FFA88F3296857
:1040A0000298324602F0A4F8286840442860386834
:1040B00040443860DBF818303868D9F80010814285
:1040C0004FF0000288BF012239B108F10304A408AF
:1040D0009BB2A34228BF8142D8D8002A01980BD1B5
:1040E00000F00F00012101FA00F0029AD2F8341812
:1040F00021EA0000C2F8340803B0BDE8F08F0000E8
:1041000070470000F0B581B00D46044641F200074B
:10411000C4F20207F868216810F0030F09D0FA68AA
:104120000120002900F0828002F003028A4222D09E
:104130007CE0032909D0022911D0012943D1386834
:1041400010F0020F11D1012070E0386810F4003F28
:1041500004BF386810F4802F07D1012066E038686A
:1041600010F4806F01D1012060E0F868216820F030
:1041700003000843F860386820F080603860FDF77D
:1041800093FF0646386810F0006F06D0FDF78CFFED
:10419000801B0228F6D9032048E0A0680002A5B1E0
:1041A000396948F20F02CFF6FF12012D16D102F144
:1041B000B462114022690023CFF6E07303EA025291
:1041C000A2F5001212E0012030E0396948F20F0236
:1041D000C0F2FF721140E268D20607E01140626946
:1041E0004FF07E4303EA026202F17E42104308432D
:1041F00061686FF00F0202EB011108433861386803
:1042000040F080603860FDF74FFF0546386810F0D9
:10421000006F06D1FDF748FF401B0228F6D90320A6
:1042200004E0A0693969084338610020C0B201B0D8
:10423000F0BD0000F0B581B00D46044641F2000724
:10424000C4F20207F868216810F0030F09D0FA6879
:104250000120002900F0828002F003028A4222D06D
:104260007CE0032909D0022911D0012943D1386803
:1042700010F0020F11D1012070E0386810F4003FF7
:1042800004BF386810F4802F07D1012066E0386839
:1042900010F4806F01D1012060E0F868216820F0FF
:1042A00003000843F860386820F080503860FDF75C
:1042B000FBFE0646386810F0005F06D0FDF7F4FEFE
:1042C000801B0228F6D9032048E0A0680002A5B1AF
:1042D000796948F20F02CFF6FF12012D16D102F1D3
:1042E000B462114022690023CFF6E07303EA025260
:1042F000A2F5001212E0012030E0796948F20F02C5
:10430000C0F2FF721140E268D20607E01140626914
:104310004FF07E4303EA026202F17E4210430843FB
:1043200061686FF00F0202EB011108437861386891
:1043300040F080503860FDF7B7FE0546386810F051
:10434000005F06D1FDF7B0FE401B0228F6D903201E
:1043500004E0A0697969084378610020C0B201B027
:10436000F0BD000041F20C00C4F20200016801F04F
:1043700003018A1E022A04D242F2004CC0F2F40C5D
:1043800018E0012908D150F80C1C11F0080F06D1D3
:10439000D0F88810090A05E04FF0000C0AE050F848
:1043A0000C1C090901F00F0146F22842C0F6000278
:1043B00052F821C0026803680068C0F3416002211E
:1043C00001EB4000C3F3062101FB0CF1C2F3031221
:1043D0000132B1FBF2F1B1FBF0F07047B0B582B041
:1043E000044641F25805C4F20205286810F0805FC7
:1043F0000FD1286840F080502860286800F0805075
:1044000001900198FEF7D6FC296821F080512960BF
:1044100001E0FEF7CFFC42F20001C4F20201B0F568
:10442000007F06D1812C08D30120A02C88BF022058
:104430000AE07F2C03D9022006E0002004E0A4F16A
:104440007000B0FA80F040090A6822F00F020243BF
:104450000A60096801F00F01081A18BF012002B0B4
:10446000B0BD0000704700000178407841EA0020AC
:10447000704700000A46014641F26840C2F200005F
:1044800000F022B940F68431C2F2000101204FF45D
:10449000C072FCF79FB90000B0B501380024B4EB3E
:1044A000106F1EBF01242046B0BD4EF21005CEF2A3
:1044B000000568604FF0FF304FF00F0101F0CEFEB5
:1044C000AC604FF0070028602046B0BDFDF7F2BD9C
:1044D000F0B5BDB000240020FEF7F8FBFEF77EFC2F
:1044E00041F29000C4F20200016821F0180101605D
:1044F00035202C904FF480302D9001202E90CDE966
:104500003204B021349102213691032637960425D6
:10451000389535903C20CDE93901CDE93B112CA8E7
:10452000FFF720F80F20CDE92706CDE929442B9489
:1045300027A805270521FEF7ADFE4FF4B430009003
:104540001B944FF08050CDE920041D94CDE9016704
:10455000602003901920CDE9040506950020C0F2E3
:10456000011007906846FEF743FC00204FF0807171
:104570000022FEF7CDFFFEF771FF44F6D351C1F2E2
:104580006201A0FB01018809FFF730FB0420FFF75F
:104590001FFB4FF0FF3000210022FDF7E1FD3DB091
:1045A000F0BD00004EF68850CEF20000016841F4E4
:1045B000700101607047000010B50A4604A041F286
:1045C0007C34C2F20004214600F0ECFC204610BD11
:1045D000415544494F20436F6E66696700000000F3
:1045E0002DE9F0470446D4F8BC6296F80490B6F87A
:1045F00012A0F789358B0020B08101295ED1307D72
:1046000001280AD102203075D4F8D40204EB8000CE
:10461000D0F8C40280688047307D032818D1F08A22
:10462000B0FBF7F101FB1700F082854238BF3D4433
:10463000281A1FFA80F8B07E00FB0AF0804511D2DC
:10464000F07E00FB0AF0804598BFAAEB490A0BE018
:1046500040F6F012C2F2000220468121534600F0DB
:10466000EDFE2BE00AEB490AF08A316E0A1820466B
:104670008121534600F0E2FEF08A5044F082F08936
:104680004CF6CD41CCF6CC41A0FB0101B8EBD10FEB
:1046900014D2D4F8D40204EB8000D0F8C4024069EC
:1046A0008047012030750020B081F089318A0144B3
:1046B000306EFBF7B8FD0020BDE8F0870020BDE8B4
:1046C000F0870000002070472DE9F0410D4641F2CF
:1046D0004471C2F20001097D002902BF0124E0B249
:1046E000BDE8F081D0F8BC62337D4FEA4207BCB22E
:1046F000718A022B30D0328A94422DD1032B54D1AF
:10470000B6F80E80B1894A1CB281C8290BD10121AB
:104710003175D0F8D41200EB8100D0F8C4024069A2
:1047200080470020B081308B316E084429462246F4
:10473000FBF760FD308B384480B2B0FBF8F101FB31
:1047400018003083A04230D1316E01EB08002246C0
:10475000FBF750FD00242CE0378204EB4400B0FB53
:10476000F1F000FB01F232830022F282421CB276A9
:10477000FF30F076B4FBF1F0484300EB400040001E
:10478000F081306E002818BF01F0E8FDF089318A11
:10479000084401F00BFE30664FF0030448B1F18984
:1047A000328A1144FBF73FFD34750024E0B2BDE8C6
:1047B000F081E0B2BDE8F08110B50446812100F03F
:1047C0003BFCD4F8BC0270B1D4F8D40204EB8000F6
:1047D000D0F8C402416800240020884741F24470A8
:1047E000C2F200000475002010BD000012200880F5
:1047F00040F29400C2F200007047000010B5D0F8FB
:10480000BC42217F012904BF94F85E10022901D027
:10481000002010BDD0F8D41200EB8100D0F8C40203
:10482000C16841F24440C2F20000B0F9000088477C
:104830000020A4F85D00A083002010BD0020704778
:104840007621018041F20430C2F20000704700007E
:104850000A21018040F26000C2F2000070470000AF
:104860002DE9F041044641F24476C2F20006307D63
:1048700000281EBF0327F8B2BDE8F081C4F8BC626F
:10488000758A308A00EB4000B0FBF5F005FB00F0C4
:1048900030834FF00007F782B781D4F8D40204EBDD
:1048A0008000D0F8C40203683279B0684FF000018C
:1048B00098474FF0010820464FF081014FF0010268
:1048C0004FF4487300F0FCFC20464FF0810100F0EB
:1048D00071FC40F6F012C2F2000220464FF0810156
:1048E0002B4600F0ABFD86F81480F8B2BDE8F081ED
:1048F0002DE9F04141F20430C2F2000040F20923F8
:10490000038002F16C0383701B0AC3704FF0020C2A
:1049100080F804C001244471002383718027C7718B
:10492000322707720927477204268672C3720373FF
:1049300043738473C4730374437487742427C774E4
:1049400004754375847502F12506C67503764476B1
:1049500084760C26C676077780F81DC08477C477E6
:1049600080F820C080F8213080F822200326022A17
:1049700018BF002680F8236080F8243080F82530A6
:1049800080F8263002F1080380F8273080F828707C
:10499000062380F8293080F82AC080F82B4080F860
:1049A0002C40012A03D1A0F82DC02F2310E04FF492
:1049B0000073A0F82D3080F82FC0032A07D30223FC
:1049C00080F83030032A40F0AB80312300E0302300
:1049D0009FB24FF0000E00F807E010FA83F00924B0
:1049E0004470242585700327C77007710123437124
:1049F000837180F807E04FF0020C80F808C080F85F
:104A000009E084720426C672037380F80DE080F812
:104A10000EE0C37380F810C080F811E080F812E057
:104A2000C474067543758375C375037680F819C021
:104A300080F81AE080F81BE04FF0070880F81C802F
:104A400045778377C77780F8203080F8213080F869
:104A500022E00B2780F8237080F8245080F825C0CE
:104A600080F8263080F8272080F828C0102580F8AC
:104A7000295080F82A3080F82B100D0A80F82C502D
:104A80000D0C80F82D5080F82E40052480F82F4022
:104A9000812580F8305044F6D355C1F26205A1FB60
:104AA00005570CEB9715554380F831406E0080F8A0
:104AB0003260ED0980F8335080F8343080F835E00A
:104AC00080F836E080F83780252580F8385080F867
:104AD000393080F83AE080F83BE080F83CE080F83C
:104AE0003DE0B8095043430041F24475C2F200056D
:104AF0006B82A96000EB40008000E8812A71AC76EF
:104B000085F81BC085F814E0688A00EB4000288314
:104B1000A5F816E0A5F810E0C5F860E0BDE8F08162
:104B200080F83130052A06D3022380F83230052A76
:104B300003D133234CE732234AE780F83330072A86
:104B400009D3022380F83430072A1ABF80F83530A1
:104B5000362335233CE734233AE7000010B50A46F4
:104B600004A041F27C34C2F20004214600F01AFA9B
:104B7000204610BD415544494F20496E7465726608
:104B800061636500002070470020704704200880A2
:104B900040F29000C2F200007047000010B50A46D3
:104BA00004A041F27C34C2F20004214600F0FAF97C
:104BB000204610BD53544D6963726F656C65637414
:104BC000726F6E696373000080B50A4600280CBFDF
:104BD0000FA006A041F27C31C2F2000100F0E2F920
:104BE00041F27C30C2F2000080BD00BF53544D330F
:104BF0003220415544494F2053747265616D696E8E
:104C00006720696E204653204D6F646500000000E8
:104C100053544D333220415544494F2053747265EB
:104C2000616D696E6720696E204853204D6F646521
:104C300000000000002918BFC0F8C4124FF00000A7
:104C4000704700000020704780B50A4600280CBF5E
:104C50000AA006A041F27C31C2F2000100F0A2F9E4
:104C600041F27C30C2F2000080BD00BF30303030F5
:104C700030303030303334460000000030303030D7
:104C800030303030303334450000000080B50A78D1
:104C900012F060020DD0202A43D14B78A3F181029B
:104CA000032A1FD8DFE802F0022D3033FBF78EFB1A
:104CB00037E0D0F8BC224B780B2B18D00A2B1BD036
:104CC000062B2ED14A8822F0FF02B2F5045F28D1CC
:104CD000CA88092A28BF092241F20431C2F2000120
:104CE00012310BE0012B15D1FBF7A2FB19E08B78F9
:104CF000012B14D8136014E01168012200F06EF843
:104D00000FE0FBF77DFB0CE0FBF770FB09E0FBF726
:104D100083FB06E000F03CF80320C0B280BD00F049
:104D200037F80020C0B280BD80B5D0F8B8225268F4
:104D30009047002818BF032080BD000090F89C22F7
:104D4000013A022A88BF00F023B84988012918BF18
:104D5000704780B54FF00001C0F8A41200F04CF885
:104D6000BDE8804070470000002070470020704779
:104D700080B513460A46002100F0ACFA002080BD41
:104D800080B513460A46002100F058FB002080BD84
:104D900010B50446802100F031FB20460021BDE81B
:104DA000104000F02BBB000080B513460A460321DB
:104DB000C0F89412C0E95633002100F08BFA0020AD
:104DC00080BD000080B50521C0F8941200210022AA
:104DD000002300F07FFA002080BD000080B513465C
:104DE0000A460221C0F89412C0E90633002100F0FF
:104DF00025FB002080BD000080B50421C0F894127E
:104E000000210022002300F019FB002080BD0000DB
:104E100080B5C98801291CBFBDE88040FFF7B8BF35
:104E200090F89C12A1F10102022A04D2002201464C
:104E300041F8082F07E003291CBFBDE88040FFF7B9
:104E4000A7BF00F104010122FFF7C8FF80BD0000E9
:104E5000B0B582B00D4604460020ADF80600688863
:104E60004FF0FF3101EB1021062900F26780DFE8E7
:104E700001F00416096565242D00207CD4F8B412D5
:104E80000A6848E0C0B2052858D8DFE800F0032BD4
:104E900030353A3FD4F8B4024268DABB4EE0D4F879
:104EA000B802217C002914BFC16A816A0DF1060095
:104EB000884701464FF0020012E0207CF0BBD4F896
:104EC000B802416B0DF10600884727E0207CA8BBA3
:104ED000D4F8B802016B0DF106008847014607209F
:104EE00048701CE0D4F8B40282689AB926E0D4F87D
:104EF000B402C26872B921E0D4F8B40202694AB9B6
:104F00001CE0D4F8B402426922B917E0D4F8B40224
:104F100082699AB1207C0DF1060190470146EA882A
:104F20008AB1BDF8060048B1904238BF0246ADF8DC
:104F300006202046FFF752FF02B0B0BD2046FFF723
:104F400027FF02B0B0BD2046FFF756FF02B0B0BD4C
:104F50000178002902BF0020C0B2704700F10101B2
:104F60004FF00000013011F8012B002AFAD1C0B235
:104F70007047000090F89C22013A022A88BFFFF790
:104F800007BFC98802290BD1D0F8A4120322002937
:104F900008BF0122C26000F10C010222FFF71EBF10
:104FA000FFF7F6BE70B516460C4605461DB32846FB
:104FB000FFF7CEFF022101EB4000C82828BFC82020
:104FC000308030782070032060702978002908BF75
:104FD00070BD05F101004FF002024FF0000300BF69
:104FE000D6B2A15542F00101C9B26354023210F8A1
:104FF000011B0029F4D170BD002804BF03207047B5
:105000004FF00003C0F8B832C0F8C432C0F8D03254
:10501000002918BFC0F8B4124FF0010180F89C12AB
:10502000027000F0CFB8000080B5D0F8C802FDF7DC
:1050300043F9002080BD000080B5D0F8C802FDF71C
:1050400013F9002080BD0000B0B50446A1B194F86A
:105050009C02032852D1D4F8B802406900284DD0F0
:105060000020C4F8D402D4F8B80242692046904720
:10507000002808BF0020B0BDD4F89402022836D121
:10508000D4E9071081420DD90B1AE361204611467D
:105090001A46FFF775FE204600210022002300F08B
:1050A00019F924E00FD1A16981420CD3D4F89802F8
:1050B000814208D20025204600210022FFF760FE31
:1050C000C4F89852E7E794F89C02032808D1D4F872
:1050D000B802C16821B10020C4F8D4022046884734
:1050E0002046802100F08AF92046FFF76BFE94F8F5
:1050F000A00200281CBF002084F8A0020020B0BD40
:1051000010B5044699B194F89C02032826D1D4F82E
:10511000B802806910B30020C4F8D402D4F8B802F1
:10512000826920469047002808BF002010BDD4F8AF
:105130009402032812D1D4E95710814210D904F502
:10514000B073091AC4F85C11814238BF04F5AE731C
:105150001B68204611461A46FFF70AFE002010BDC4
:1051600094F89C0203280BD1D4F8B802006938B136
:105170000020C4F8D402D4F8B80201692046884758
:105180002046FFF739FE002010BD000000207047C8
:10519000012180F89C12D0F8B822002A04BF002018
:1051A000704780B5017952689047002818BF0320E6
:1051B00080BD000080B5D0F8C802FDF7ABF8002034
:1051C00080BD0000B0B5054601F040F841F2A8747A
:1051D000C2F200044FF0A0400821C4E90001002001
:1051E000206340210222C4E90302C4E90512C4E994
:1051F0000700E062C4F80855C5F8C8422046FDF72C
:1052000025FC20463621FCF7D3FF20460021322220
:10521000FCF7D2FF20460121C822FCF7CDFF002079
:10522000B0BD0000D0F8C80201F07F0202EBC2025C
:1052300000EB820000F13E0211F0800F08BF00F287
:105240007E22107870470000D0F8D42200EB820252
:10525000D2F8B832002B02BF0320C0B2704790F8DA
:105260009C32032B0BD102F52E721268126A32B1F6
:1052700080B590470020BDE88040C0B27047002054
:10528000C0B27047D0F8D42200EB8202D2F8B83214
:10529000002B02BF0320C0B2704790F89C32032B52
:1052A0000BD102F52E721268526A32B180B5904766
:1052B0000020BDE88040C0B270470020C0B27047F7
:1052C00080B59446D0F8C8021A466346FDF740F808
:1052D000002080BD80B5D0F8C802FDF76DF8002031
:1052E00080BD0000F0B581B00446012684F89C62C0
:1052F0000025C4F894526560C4F8A45284F8A05202
:10530000D4F8B80250B142683AB1217920469047AA
:105310000546002D18BF032500E000254027204644
:10532000002100224023FFF7CBFFA4F86461C4F8FA
:1053300060712046802100224023FFF7C1FFA68430
:105340002762284601B0F0BD90F89C12042904BFE2
:1053500090F89D1280F89C124FF0000070470000FA
:1053600090F89C1203290AD1D0F8B81200291CBF6A
:10537000C969002903D080B58847BDE88040002076
:1053800070470000017400207047000080B5D0F81D
:10539000C802FDF755FC002080BD0000B0B50446F2
:1053A00004F2AA25284600F051F80120C4F894021E
:1053B000B4F8B002C4F8980294F8AA0200F01F01F1
:1053C000022908D001290CD089B920462946BDE818
:1053D000B04000F00FB920462946BDE8B04000F0CB
:1053E00047B920462946BDE8B04000F007BA00F0B2
:1053F00080012046BDE8B040AFF3008080B5D0F812
:10540000C802FCF7F1FF002080BD000080B5D0F895
:10541000C802FDF735FC002080BD000090F89C120A
:1054200004291CBF90F89C1280F89D124FF00401D3
:1054300080F89C124FF000007047000080B5D0F853
:10544000C802FDF707F8002080BD0000B0B50C468B
:1054500005462078287060786870A01CFFF704F873
:105460006880201DFFF700F8A880A01DFEF7FCFF54
:10547000E880B0BD10B582B004460020ADF806004B
:10548000A9B1C4F8B812D4F8D40204F52E7151F8B9
:105490002000C16A21B10DF106008847C4F8D0028E
:1054A000D4F8D8020130C4F8D802002000E003206C
:1054B000C0B202B010BD0000B0B50446888840B943
:1054C000C88830B948887F2803D894F89C120329EB
:1054D00004D12046BDE8B040FFF75ABC00F07F057C
:1054E00084F89E52E9B22046FFF750FF2046FFF7AE
:1054F00083FC0120002D18BF022084F89C02B0BD5F
:10550000D0F8B822002A04BF002070471268104764
:10551000B0B50446488841F27A35C2F200052870D9
:1055200000F0FE00022803D32046FFF731FC31E0F3
:1055300094F89C0203280DD0022824D12978A1B325
:1055400061602046FFF7DCFF054620469DB3FFF76C
:105550001FFC16E0297801B36068884225D0C1B2EB
:105560002046FFF7E1FB297861602046FFF7C8FF7E
:105570000546D5B12046FFF70BFC21792046FFF701
:10558000D3FB02201AE02046FFF702FC29782046D0
:10559000FFF7CAFB03252846B0BD022084F89C0211
:1055A000297861602046FFF7BFFB2046FFF724FC07
:1055B00000252846B0BDFFF71FFC032084F89C029D
:1055C0002846B0BD80B54A88022A07D0012A0BD1EF
:1055D0000121C0F8A412FFF70FFC80BD497980F8C3
:1055E000A012FFF709FC80BDBDE88040FFF7D0BBEB
:1055F000FFF70CBF80B50A7812F060020DD0402A88
:1056000018BF202A17D1D0F8D42200EB8202D2F89A
:10561000B8229268BDE8804010474A78092A0AD823
:10562000DFE802F0050D091109152109191DFFF721
:10563000A1FC002080BDFFF7ABFB002080BDFFF781
:105640007DFB002080BDFFF7BDFF002080BDFFF780
:1056500033FF002080BDFFF7DBFB002080BDBDE8ED
:105660008040FFF755BFFFF7F3FB002080BD00002F
:1056700070B50E4604463078357910F0600015D0CC
:10568000402818BF202822D120462946FFF76CFB6E
:1056900000BBC4F8D40204EB8000D0F8B8028268E2
:1056A000C2B120463146BDE870401047707898B1CD
:1056B00001282DD003286FD194F89C0203283BD0F9
:1056C000022869D145F08000802865D02AE0204674
:1056D000FFF75EFB002070BD94F89C0203283CD0CD
:1056E000022804BF45F08000802855D104F5AA7037
:1056F00015F0800F18BF04F1140005F07F0101EBD5
:105700008101002240F8212000EB8101204670E059
:1057100094F89C02032844D002283DD145F0800033
:10572000802839D020462946FFF768FE2046802190
:10573000FFF764FE002070BD708848B945F0800016
:10574000802805D0F08818B920462946FFF756FE74
:105750002046FFF751FB002070BD05F00F0101EB63
:10576000810104EB810115F080000CBFB1F86411D8
:10577000898C89B104F5AA71002818BF04F11401BD
:1057800005F07F0000EB800001EB800645F0800013
:10579000802824D1002029E02046FFF7F9FA0020D4
:1057A00070BD7088002895D1680603D02046294630
:1057B000FFF73AFC2046FFF71FFB20462946FFF77C
:1057C000D3FA00287FF486AFC4F8D40204EB80003B
:1057D000D0F8B8028268002A7FF463AF7AE72046E7
:1057E0002946FFF71FFD002818BF01203060204622
:1057F00031460222FFF7F2FA002070BDB0B50D4627
:105800000446287810F0600018BF402801D02028F6
:105810000CD194F89C02013802289CBF29790229F6
:1058200009D92046FFF7B4FA0020B0BD2046FFF7A3
:10583000AFFA0020B0BD2046FFF798FA08B1032068
:10584000B0BD04EB8001D1F8B8229268002AF6D0EE
:1058500001F52E71C4F8D4020868826820462946F2
:105860009047002804BFE9880029E3D12046FFF7CC
:10587000C3FA0020B0BD0000B0B50D784C7805F03B
:105880000F02012303FA02F24FEA451E48F2000C10
:10589000C1F2000C012C1CD1D0F81C381A43C0F8FE
:1058A0001C2800F5106050F80E2012F4004F2AD189
:1058B0000A7989685EF800306FF3DF2141EA85518B
:1058C000194341EA824141EA0C014EF800100020E0
:1058D000B0BDD0F81C3843EA0242C0F81C2800F5DD
:1058E000306050F80E2012F4004F0CD10A7989680C
:1058F0005EF800306FF3DF21194341EA824141EA4B
:105900000C014EF800100020B0BD0000D0F80019C6
:1059100040F2FF729143C0F80019D0F8041841F426
:105920008071C0F8041800207047000010B50446CC
:10593000E06840F04000E060204600F00BF8A16B0A
:1059400021F48032089B002B08BF41F48032A2630F
:1059500010BD000081B00021009140F64051C0F21E
:10596000030100BF009A01320092009A8A4215D8C2
:105970000269B2F1FF3FF5DC00220092026942F0B9
:1059800001020261009A01320092009A8A4207D80D
:10599000026912F0010FF5D1002002E0032000E0BF
:1059A0000320C0B201B0704710B50A784B7852019D
:1059B00047F6000CCEF6334C0244012B09D102F518
:1059C0001063D2F80029B2F1FF3F0EDD4FF0010E57
:1059D00020E002F53063D2F8002B0CF1707CB2F1BC
:1059E000FF3F0DDD4FF4803E14E01A6842F0006284
:1059F0001A601A6842F080421A604FF0010E09E006
:105A00001A6842F000621A601A6842F080421A6016
:105A10004FF4803E0A7802F00F020EFA02F2D0F83C
:105A20003C4824EA0202C0F83C28097801F00F0142
:105A30000EFA01F1D0F81C2822EA0101C0F81C1866
:105A4000186800EA0C001860002010BDD0F8001E95
:105A500021F00301C0F8001ED0F8041821F0020163
:105A6000C0F8041800207047D0F8001E21F0030190
:105A7000C0F8001ED0F8041841F00201C0F8041864
:105A8000002070472DE9F0470D4604464120DDF81F
:105A90003C90DDF82C80002144F820100130502883
:105AA000FAD1B9F1000F04D004F138014FF400101D
:105AB0000FE0D4F8040840F00200C4F80408A06B1A
:105AC00020F40010A063206840F040002060802097
:105AD00021460A68104308604FF0000AC4F800AE7F
